{
  "_format": "hh-sol-artifact-1",
  "contractName": "MyEpicGame",
  "sourceName": "contracts/MyEpicGame.sol",
  "abi": [
    {
      "inputs": [
        {
          "internalType": "string[]",
          "name": "characterNames",
          "type": "string[]"
        },
        {
          "internalType": "string[]",
          "name": "characterImageURIs",
          "type": "string[]"
        },
        {
          "internalType": "uint256[]",
          "name": "characterHp",
          "type": "uint256[]"
        },
        {
          "internalType": "uint256[]",
          "name": "characterAttackDmg",
          "type": "uint256[]"
        },
        {
          "internalType": "string",
          "name": "demonName",
          "type": "string"
        },
        {
          "internalType": "string",
          "name": "demonImageURI",
          "type": "string"
        },
        {
          "internalType": "uint256",
          "name": "demonHp",
          "type": "uint256"
        },
        {
          "internalType": "uint256",
          "name": "demonAttackDamage",
          "type": "uint256"
        }
      ],
      "stateMutability": "nonpayable",
      "type": "constructor"
    },
    {
      "anonymous": false,
      "inputs": [
        {
          "indexed": true,
          "internalType": "address",
          "name": "owner",
          "type": "address"
        },
        {
          "indexed": true,
          "internalType": "address",
          "name": "approved",
          "type": "address"
        },
        {
          "indexed": true,
          "internalType": "uint256",
          "name": "tokenId",
          "type": "uint256"
        }
      ],
      "name": "Approval",
      "type": "event"
    },
    {
      "anonymous": false,
      "inputs": [
        {
          "indexed": true,
          "internalType": "address",
          "name": "owner",
          "type": "address"
        },
        {
          "indexed": true,
          "internalType": "address",
          "name": "operator",
          "type": "address"
        },
        {
          "indexed": false,
          "internalType": "bool",
          "name": "approved",
          "type": "bool"
        }
      ],
      "name": "ApprovalForAll",
      "type": "event"
    },
    {
      "anonymous": false,
      "inputs": [
        {
          "indexed": false,
          "internalType": "uint256",
          "name": "newDemonHp",
          "type": "uint256"
        },
        {
          "indexed": false,
          "internalType": "uint256",
          "name": "newPlayerHp",
          "type": "uint256"
        }
      ],
      "name": "AttackComplete",
      "type": "event"
    },
    {
      "anonymous": false,
      "inputs": [
        {
          "indexed": false,
          "internalType": "address",
          "name": "sender",
          "type": "address"
        },
        {
          "indexed": false,
          "internalType": "uint256",
          "name": "tokenId",
          "type": "uint256"
        },
        {
          "indexed": false,
          "internalType": "uint256",
          "name": "characterIndex",
          "type": "uint256"
        }
      ],
      "name": "CharacterNFTMinted",
      "type": "event"
    },
    {
      "anonymous": false,
      "inputs": [
        {
          "indexed": true,
          "internalType": "address",
          "name": "from",
          "type": "address"
        },
        {
          "indexed": true,
          "internalType": "address",
          "name": "to",
          "type": "address"
        },
        {
          "indexed": true,
          "internalType": "uint256",
          "name": "tokenId",
          "type": "uint256"
        }
      ],
      "name": "Transfer",
      "type": "event"
    },
    {
      "inputs": [
        {
          "internalType": "address",
          "name": "to",
          "type": "address"
        },
        {
          "internalType": "uint256",
          "name": "tokenId",
          "type": "uint256"
        }
      ],
      "name": "approve",
      "outputs": [],
      "stateMutability": "nonpayable",
      "type": "function"
    },
    {
      "inputs": [],
      "name": "attackDemon",
      "outputs": [],
      "stateMutability": "nonpayable",
      "type": "function"
    },
    {
      "inputs": [
        {
          "internalType": "address",
          "name": "owner",
          "type": "address"
        }
      ],
      "name": "balanceOf",
      "outputs": [
        {
          "internalType": "uint256",
          "name": "",
          "type": "uint256"
        }
      ],
      "stateMutability": "view",
      "type": "function"
    },
    {
      "inputs": [],
      "name": "checkIfUserHasNFT",
      "outputs": [
        {
          "components": [
            {
              "internalType": "uint256",
              "name": "characterIndex",
              "type": "uint256"
            },
            {
              "internalType": "string",
              "name": "name",
              "type": "string"
            },
            {
              "internalType": "string",
              "name": "imageURI",
              "type": "string"
            },
            {
              "internalType": "uint256",
              "name": "hp",
              "type": "uint256"
            },
            {
              "internalType": "uint256",
              "name": "maxHp",
              "type": "uint256"
            },
            {
              "internalType": "uint256",
              "name": "attackDamage",
              "type": "uint256"
            }
          ],
          "internalType": "struct MyEpicGame.CharacterAttributes",
          "name": "",
          "type": "tuple"
        }
      ],
      "stateMutability": "view",
      "type": "function"
    },
    {
      "inputs": [],
      "name": "demon",
      "outputs": [
        {
          "internalType": "string",
          "name": "name",
          "type": "string"
        },
        {
          "internalType": "string",
          "name": "imageURI",
          "type": "string"
        },
        {
          "internalType": "uint256",
          "name": "hp",
          "type": "uint256"
        },
        {
          "internalType": "uint256",
          "name": "maxHp",
          "type": "uint256"
        },
        {
          "internalType": "uint256",
          "name": "attackDamage",
          "type": "uint256"
        }
      ],
      "stateMutability": "view",
      "type": "function"
    },
    {
      "inputs": [],
      "name": "getAllDefaultCharacters",
      "outputs": [
        {
          "components": [
            {
              "internalType": "uint256",
              "name": "characterIndex",
              "type": "uint256"
            },
            {
              "internalType": "string",
              "name": "name",
              "type": "string"
            },
            {
              "internalType": "string",
              "name": "imageURI",
              "type": "string"
            },
            {
              "internalType": "uint256",
              "name": "hp",
              "type": "uint256"
            },
            {
              "internalType": "uint256",
              "name": "maxHp",
              "type": "uint256"
            },
            {
              "internalType": "uint256",
              "name": "attackDamage",
              "type": "uint256"
            }
          ],
          "internalType": "struct MyEpicGame.CharacterAttributes[]",
          "name": "",
          "type": "tuple[]"
        }
      ],
      "stateMutability": "view",
      "type": "function"
    },
    {
      "inputs": [
        {
          "internalType": "uint256",
          "name": "tokenId",
          "type": "uint256"
        }
      ],
      "name": "getApproved",
      "outputs": [
        {
          "internalType": "address",
          "name": "",
          "type": "address"
        }
      ],
      "stateMutability": "view",
      "type": "function"
    },
    {
      "inputs": [],
      "name": "getDemon",
      "outputs": [
        {
          "components": [
            {
              "internalType": "string",
              "name": "name",
              "type": "string"
            },
            {
              "internalType": "string",
              "name": "imageURI",
              "type": "string"
            },
            {
              "internalType": "uint256",
              "name": "hp",
              "type": "uint256"
            },
            {
              "internalType": "uint256",
              "name": "maxHp",
              "type": "uint256"
            },
            {
              "internalType": "uint256",
              "name": "attackDamage",
              "type": "uint256"
            }
          ],
          "internalType": "struct MyEpicGame.Demon",
          "name": "",
          "type": "tuple"
        }
      ],
      "stateMutability": "view",
      "type": "function"
    },
    {
      "inputs": [
        {
          "internalType": "address",
          "name": "owner",
          "type": "address"
        },
        {
          "internalType": "address",
          "name": "operator",
          "type": "address"
        }
      ],
      "name": "isApprovedForAll",
      "outputs": [
        {
          "internalType": "bool",
          "name": "",
          "type": "bool"
        }
      ],
      "stateMutability": "view",
      "type": "function"
    },
    {
      "inputs": [
        {
          "internalType": "uint256",
          "name": "_characterIndex",
          "type": "uint256"
        }
      ],
      "name": "mintCharacterNFT",
      "outputs": [],
      "stateMutability": "nonpayable",
      "type": "function"
    },
    {
      "inputs": [],
      "name": "name",
      "outputs": [
        {
          "internalType": "string",
          "name": "",
          "type": "string"
        }
      ],
      "stateMutability": "view",
      "type": "function"
    },
    {
      "inputs": [
        {
          "internalType": "uint256",
          "name": "",
          "type": "uint256"
        }
      ],
      "name": "nftHolderAttributes",
      "outputs": [
        {
          "internalType": "uint256",
          "name": "characterIndex",
          "type": "uint256"
        },
        {
          "internalType": "string",
          "name": "name",
          "type": "string"
        },
        {
          "internalType": "string",
          "name": "imageURI",
          "type": "string"
        },
        {
          "internalType": "uint256",
          "name": "hp",
          "type": "uint256"
        },
        {
          "internalType": "uint256",
          "name": "maxHp",
          "type": "uint256"
        },
        {
          "internalType": "uint256",
          "name": "attackDamage",
          "type": "uint256"
        }
      ],
      "stateMutability": "view",
      "type": "function"
    },
    {
      "inputs": [
        {
          "internalType": "address",
          "name": "",
          "type": "address"
        }
      ],
      "name": "nftHolders",
      "outputs": [
        {
          "internalType": "uint256",
          "name": "",
          "type": "uint256"
        }
      ],
      "stateMutability": "view",
      "type": "function"
    },
    {
      "inputs": [
        {
          "internalType": "uint256",
          "name": "tokenId",
          "type": "uint256"
        }
      ],
      "name": "ownerOf",
      "outputs": [
        {
          "internalType": "address",
          "name": "",
          "type": "address"
        }
      ],
      "stateMutability": "view",
      "type": "function"
    },
    {
      "inputs": [
        {
          "internalType": "address",
          "name": "from",
          "type": "address"
        },
        {
          "internalType": "address",
          "name": "to",
          "type": "address"
        },
        {
          "internalType": "uint256",
          "name": "tokenId",
          "type": "uint256"
        }
      ],
      "name": "safeTransferFrom",
      "outputs": [],
      "stateMutability": "nonpayable",
      "type": "function"
    },
    {
      "inputs": [
        {
          "internalType": "address",
          "name": "from",
          "type": "address"
        },
        {
          "internalType": "address",
          "name": "to",
          "type": "address"
        },
        {
          "internalType": "uint256",
          "name": "tokenId",
          "type": "uint256"
        },
        {
          "internalType": "bytes",
          "name": "_data",
          "type": "bytes"
        }
      ],
      "name": "safeTransferFrom",
      "outputs": [],
      "stateMutability": "nonpayable",
      "type": "function"
    },
    {
      "inputs": [
        {
          "internalType": "address",
          "name": "operator",
          "type": "address"
        },
        {
          "internalType": "bool",
          "name": "approved",
          "type": "bool"
        }
      ],
      "name": "setApprovalForAll",
      "outputs": [],
      "stateMutability": "nonpayable",
      "type": "function"
    },
    {
      "inputs": [
        {
          "internalType": "bytes4",
          "name": "interfaceId",
          "type": "bytes4"
        }
      ],
      "name": "supportsInterface",
      "outputs": [
        {
          "internalType": "bool",
          "name": "",
          "type": "bool"
        }
      ],
      "stateMutability": "view",
      "type": "function"
    },
    {
      "inputs": [],
      "name": "symbol",
      "outputs": [
        {
          "internalType": "string",
          "name": "",
          "type": "string"
        }
      ],
      "stateMutability": "view",
      "type": "function"
    },
    {
      "inputs": [
        {
          "internalType": "uint256",
          "name": "_tokenId",
          "type": "uint256"
        }
      ],
      "name": "tokenURI",
      "outputs": [
        {
          "internalType": "string",
          "name": "",
          "type": "string"
        }
      ],
      "stateMutability": "view",
      "type": "function"
    },
    {
      "inputs": [
        {
          "internalType": "address",
          "name": "from",
          "type": "address"
        },
        {
          "internalType": "address",
          "name": "to",
          "type": "address"
        },
        {
          "internalType": "uint256",
          "name": "tokenId",
          "type": "uint256"
        }
      ],
      "name": "transferFrom",
      "outputs": [],
      "stateMutability": "nonpayable",
      "type": "function"
    }
  ],
  "bytecode": "0x60806040523480156200001157600080fd5b506040516200572038038062005720833981810160405281019062000037919062000a5a565b6040518060400160405280600781526020017f4d617374657273000000000000000000000000000000000000000000000000008152506040518060400160405280600481526020017f4d535452000000000000000000000000000000000000000000000000000000008152508160009080519060200190620000bb929190620007ed565b508060019080519060200190620000d4929190620007ed565b5050506040518060a0016040528085815260200184815260200183815260200183815260200182815250600960008201518160000190805190602001906200011e929190620007ed565b5060208201518160010190805190602001906200013d929190620007ed565b50604082015181600201556060820151816003015560808201518160040155905050620002c06040518060600160405280602a8152602001620056f6602a9139600960000180546200018f9062000de5565b80601f0160208091040260200160405190810160405280929190818152602001828054620001bd9062000de5565b80156200020e5780601f10620001e2576101008083540402835291602001916200020e565b820191906000526020600020905b815481529060010190602001808311620001f057829003601f168201915b5050505050600960020154600960010180546200022b9062000de5565b80601f0160208091040260200160405190810160405280929190818152602001828054620002599062000de5565b8015620002aa5780601f106200027e57610100808354040283529160200191620002aa565b820191906000526020600020905b8154815290600101906020018083116200028c57829003601f168201915b50505050506200070260201b62001d401760201c565b60005b8851811015620006dc5760076040518060c001604052808381526020018b84815181106200031a577f4e487b7100000000000000000000000000000000000000000000000000000000600052603260045260246000fd5b602002602001015181526020018a848151811062000361577f4e487b7100000000000000000000000000000000000000000000000000000000600052603260045260246000fd5b60200260200101518152602001898481518110620003a8577f4e487b7100000000000000000000000000000000000000000000000000000000600052603260045260246000fd5b60200260200101518152602001898481518110620003ef577f4e487b7100000000000000000000000000000000000000000000000000000000600052603260045260246000fd5b6020026020010151815260200188848151811062000436577f4e487b7100000000000000000000000000000000000000000000000000000000600052603260045260246000fd5b6020026020010151815250908060018154018082558091505060019003906000526020600020906006020160009091909190915060008201518160000155602082015181600101908051906020019062000492929190620007ed565b506040820151816002019080519060200190620004b1929190620007ed565b50606082015181600301556080820151816004015560a0820151816005015550506000600782815481106200050f577f4e487b7100000000000000000000000000000000000000000000000000000000600052603260045260246000fd5b90600052602060002090600602016040518060c001604052908160008201548152602001600182018054620005449062000de5565b80601f0160208091040260200160405190810160405280929190818152602001828054620005729062000de5565b8015620005c35780601f106200059757610100808354040283529160200191620005c3565b820191906000526020600020905b815481529060010190602001808311620005a557829003601f168201915b50505050508152602001600282018054620005de9062000de5565b80601f01602080910402602001604051908101604052809291908181526020018280546200060c9062000de5565b80156200065d5780601f1062000631576101008083540402835291602001916200065d565b820191906000526020600020905b8154815290600101906020018083116200063f57829003601f168201915b5050505050815260200160038201548152602001600482015481526020016005820154815250509050620006c4604051806060016040528060258152602001620056d1602591398260200151836060015184604001516200070260201b62001d401760201c565b50600181620006d4919062000d48565b9050620002c3565b50620006f46006620007ae60201b62001de21760201c565b505050505050505062000ed3565b620007a8848484846040516024016200071f949392919062000c05565b6040516020818303038152906040527f8d142cdd000000000000000000000000000000000000000000000000000000007bffffffffffffffffffffffffffffffffffffffffffffffffffffffff19166020820180517bffffffffffffffffffffffffffffffffffffffffffffffffffffffff8381831617835250505050620007c460201b60201c565b50505050565b6001816000016000828254019250508190555050565b60008151905060006a636f6e736f6c652e6c6f679050602083016000808483855afa5050505050565b828054620007fb9062000de5565b90600052602060002090601f0160209004810192826200081f57600085556200086b565b82601f106200083a57805160ff19168380011785556200086b565b828001600101855582156200086b579182015b828111156200086a5782518255916020019190600101906200084d565b5b5090506200087a91906200087e565b5090565b5b80821115620008995760008160009055506001016200087f565b5090565b6000620008b4620008ae8462000c9b565b62000c67565b9050808382526020820190508260005b85811015620008f85781518501620008dd888262000a16565b845260208401935060208301925050600181019050620008c4565b5050509392505050565b600062000919620009138462000cca565b62000c67565b905080838252602082019050828560208602820111156200093957600080fd5b60005b858110156200096d578162000952888262000a43565b8452602084019350602083019250506001810190506200093c565b5050509392505050565b60006200098e620009888462000cf9565b62000c67565b905082815260208101848484011115620009a757600080fd5b620009b484828562000daf565b509392505050565b600082601f830112620009ce57600080fd5b8151620009e08482602086016200089d565b91505092915050565b600082601f830112620009fb57600080fd5b815162000a0d84826020860162000902565b91505092915050565b600082601f83011262000a2857600080fd5b815162000a3a84826020860162000977565b91505092915050565b60008151905062000a548162000eb9565b92915050565b600080600080600080600080610100898b03121562000a7857600080fd5b600089015167ffffffffffffffff81111562000a9357600080fd5b62000aa18b828c01620009bc565b985050602089015167ffffffffffffffff81111562000abf57600080fd5b62000acd8b828c01620009bc565b975050604089015167ffffffffffffffff81111562000aeb57600080fd5b62000af98b828c01620009e9565b965050606089015167ffffffffffffffff81111562000b1757600080fd5b62000b258b828c01620009e9565b955050608089015167ffffffffffffffff81111562000b4357600080fd5b62000b518b828c0162000a16565b94505060a089015167ffffffffffffffff81111562000b6f57600080fd5b62000b7d8b828c0162000a16565b93505060c062000b908b828c0162000a43565b92505060e062000ba38b828c0162000a43565b9150509295985092959890939650565b600062000bc08262000d2c565b62000bcc818562000d37565b935062000bde81856020860162000daf565b62000be98162000ea8565b840191505092915050565b62000bff8162000da5565b82525050565b6000608082019050818103600083015262000c21818762000bb3565b9050818103602083015262000c37818662000bb3565b905062000c48604083018562000bf4565b818103606083015262000c5c818462000bb3565b905095945050505050565b6000604051905081810181811067ffffffffffffffff8211171562000c915762000c9062000e79565b5b8060405250919050565b600067ffffffffffffffff82111562000cb95762000cb862000e79565b5b602082029050602081019050919050565b600067ffffffffffffffff82111562000ce85762000ce762000e79565b5b602082029050602081019050919050565b600067ffffffffffffffff82111562000d175762000d1662000e79565b5b601f19601f8301169050602081019050919050565b600081519050919050565b600082825260208201905092915050565b600062000d558262000da5565b915062000d628362000da5565b9250827fffffffffffffffffffffffffffffffffffffffffffffffffffffffffffffffff0382111562000d9a5762000d9962000e1b565b5b828201905092915050565b6000819050919050565b60005b8381101562000dcf57808201518184015260208101905062000db2565b8381111562000ddf576000848401525b50505050565b6000600282049050600182168062000dfe57607f821691505b6020821081141562000e155762000e1462000e4a565b5b50919050565b7f4e487b7100000000000000000000000000000000000000000000000000000000600052601160045260246000fd5b7f4e487b7100000000000000000000000000000000000000000000000000000000600052602260045260246000fd5b7f4e487b7100000000000000000000000000000000000000000000000000000000600052604160045260246000fd5b6000601f19601f8301169050919050565b62000ec48162000da5565b811462000ed057600080fd5b50565b6147ee8062000ee36000396000f3fe608060405234801561001057600080fd5b50600436106101375760003560e01c80638408eea0116100b8578063b953084e1161007c578063b953084e14610355578063c87b56dd14610373578063c8cf27f4146103a3578063e22d9521146103c1578063e985e9c5146103df578063f8b81ef71461040f57610137565b80638408eea0146102c057806395d89b41146102ca57806398da4c95146102e8578063a22cb4651461031d578063b88d4fde1461033957610137565b806342842e0e116100ff57806342842e0e146101f2578063480f57dd1461020e5780636352211e1461023057806370a08231146102605780637df124a11461029057610137565b806301ffc9a71461013c57806306fdde031461016c578063081812fc1461018a578063095ea7b3146101ba57806323b872dd146101d6575b600080fd5b6101566004803603810190610151919061301a565b61042b565b6040516101639190613da0565b60405180910390f35b61017461050d565b6040516101819190613dbb565b60405180910390f35b6101a4600480360381019061019f919061306c565b61059f565b6040516101b19190613ce0565b60405180910390f35b6101d460048036038101906101cf9190612fde565b610624565b005b6101f060048036038101906101eb9190612ed8565b61073c565b005b61020c60048036038101906102079190612ed8565b61079c565b005b6102166107bc565b604051610227959493929190613e8a565b60405180910390f35b61024a6004803603810190610245919061306c565b6108f0565b6040516102579190613ce0565b60405180910390f35b61027a60048036038101906102759190612e73565b6109a2565b604051610287919061417d565b60405180910390f35b6102aa60048036038101906102a59190612e73565b610a5a565b6040516102b7919061417d565b60405180910390f35b6102c8610a72565b005b6102d2610dfd565b6040516102df9190613dbb565b60405180910390f35b61030260048036038101906102fd919061306c565b610e8f565b60405161031496959493929190614198565b60405180910390f35b61033760048036038101906103329190612fa2565b610fdb565b005b610353600480360381019061034e9190612f27565b61115c565b005b61035d6111be565b60405161036a9190613d7e565b60405180910390f35b61038d6004803603810190610388919061306c565b611369565b60405161039a9190613dbb565b60405180910390f35b6103ab611584565b6040516103b89190614139565b60405180910390f35b6103c961175c565b6040516103d6919061415b565b60405180910390f35b6103f960048036038101906103f49190612e9c565b6118b8565b6040516104069190613da0565b60405180910390f35b6104296004803603810190610424919061306c565b61194c565b005b60007f80ac58cd000000000000000000000000000000000000000000000000000000007bffffffffffffffffffffffffffffffffffffffffffffffffffffffff1916827bffffffffffffffffffffffffffffffffffffffffffffffffffffffff191614806104f657507f5b5e139f000000000000000000000000000000000000000000000000000000007bffffffffffffffffffffffffffffffffffffffffffffffffffffffff1916827bffffffffffffffffffffffffffffffffffffffffffffffffffffffff1916145b80610506575061050582611df8565b5b9050919050565b60606000805461051c906144e9565b80601f0160208091040260200160405190810160405280929190818152602001828054610548906144e9565b80156105955780601f1061056a57610100808354040283529160200191610595565b820191906000526020600020905b81548152906001019060200180831161057857829003601f168201915b5050505050905090565b60006105aa82611e62565b6105e9576040517f08c379a00000000000000000000000000000000000000000000000000000000081526004016105e0906140b9565b60405180910390fd5b6004600083815260200190815260200160002060009054906101000a900473ffffffffffffffffffffffffffffffffffffffff169050919050565b600061062f826108f0565b90508073ffffffffffffffffffffffffffffffffffffffff168373ffffffffffffffffffffffffffffffffffffffff1614156106a0576040517f08c379a0000000000000000000000000000000000000000000000000000000008152600401610697906140f9565b60405180910390fd5b8073ffffffffffffffffffffffffffffffffffffffff166106bf611ece565b73ffffffffffffffffffffffffffffffffffffffff1614806106ee57506106ed816106e8611ece565b6118b8565b5b61072d576040517f08c379a000000000000000000000000000000000000000000000000000000000815260040161072490614019565b60405180910390fd5b6107378383611ed6565b505050565b61074d610747611ece565b82611f8f565b61078c576040517f08c379a000000000000000000000000000000000000000000000000000000000815260040161078390614119565b60405180910390fd5b61079783838361206d565b505050565b6107b78383836040518060200160405280600081525061115c565b505050565b60098060000180546107cd906144e9565b80601f01602080910402602001604051908101604052809291908181526020018280546107f9906144e9565b80156108465780601f1061081b57610100808354040283529160200191610846565b820191906000526020600020905b81548152906001019060200180831161082957829003601f168201915b50505050509080600101805461085b906144e9565b80601f0160208091040260200160405190810160405280929190818152602001828054610887906144e9565b80156108d45780601f106108a9576101008083540402835291602001916108d4565b820191906000526020600020905b8154815290600101906020018083116108b757829003601f168201915b5050505050908060020154908060030154908060040154905085565b6000806002600084815260200190815260200160002060009054906101000a900473ffffffffffffffffffffffffffffffffffffffff169050600073ffffffffffffffffffffffffffffffffffffffff168173ffffffffffffffffffffffffffffffffffffffff161415610999576040517f08c379a000000000000000000000000000000000000000000000000000000000815260040161099090614059565b60405180910390fd5b80915050919050565b60008073ffffffffffffffffffffffffffffffffffffffff168273ffffffffffffffffffffffffffffffffffffffff161415610a13576040517f08c379a0000000000000000000000000000000000000000000000000000000008152600401610a0a90614039565b60405180910390fd5b600360008373ffffffffffffffffffffffffffffffffffffffff1673ffffffffffffffffffffffffffffffffffffffff168152602001908152602001600020549050919050565b600e6020528060005260406000206000915090505481565b6000600e60003373ffffffffffffffffffffffffffffffffffffffff1673ffffffffffffffffffffffffffffffffffffffff1681526020019081526020016000205490506000600860008381526020019081526020016000209050610b856040518060600160405280603c815260200161477d603c9139826001018054610af8906144e9565b80601f0160208091040260200160405190810160405280929190818152602001828054610b24906144e9565b8015610b715780601f10610b4657610100808354040283529160200191610b71565b820191906000526020600020905b815481529060010190602001808311610b5457829003601f168201915b5050505050836003015484600501546122c9565b610c5d6040518060400160405280601c81526020017f44656d6f6e2025732068617320257320485020616e642025732041440000000081525060096000018054610bce906144e9565b80601f0160208091040260200160405190810160405280929190818152602001828054610bfa906144e9565b8015610c475780601f10610c1c57610100808354040283529160200191610c47565b820191906000526020600020905b815481529060010190602001808311610c2a57829003601f168201915b50505050506009600201546009600401546122c9565b6000816003015411610ca4576040517f08c379a0000000000000000000000000000000000000000000000000000000008152600401610c9b90614079565b60405180910390fd5b600060096002015411610cec576040517f08c379a0000000000000000000000000000000000000000000000000000000008152600401610ce390613fd9565b60405180910390fd5b80600501546009600201541015610d0d576000600960020181905550610d2c565b8060050154600960020154610d2291906143ff565b6009600201819055505b60096004015481600301541015610d4c5760008160030181905550610d6a565b6009600401548160030154610d6191906143ff565b81600301819055505b610d916040518060600160405280602781526020016146e86027913960096002015461236b565b610db76040518060600160405280602981526020016146bf60299139826003015461236b565b7f838ab28464562786a6c4ab2311964b82fa60bd9b14aa7e856af1f3f18d41a4146009600201548260030154604051610df1929190614207565b60405180910390a15050565b606060018054610e0c906144e9565b80601f0160208091040260200160405190810160405280929190818152602001828054610e38906144e9565b8015610e855780601f10610e5a57610100808354040283529160200191610e85565b820191906000526020600020905b815481529060010190602001808311610e6857829003601f168201915b5050505050905090565b6008602052806000526040600020600091509050806000015490806001018054610eb8906144e9565b80601f0160208091040260200160405190810160405280929190818152602001828054610ee4906144e9565b8015610f315780601f10610f0657610100808354040283529160200191610f31565b820191906000526020600020905b815481529060010190602001808311610f1457829003601f168201915b505050505090806002018054610f46906144e9565b80601f0160208091040260200160405190810160405280929190818152602001828054610f72906144e9565b8015610fbf5780601f10610f9457610100808354040283529160200191610fbf565b820191906000526020600020905b815481529060010190602001808311610fa257829003601f168201915b5050505050908060030154908060040154908060050154905086565b610fe3611ece565b73ffffffffffffffffffffffffffffffffffffffff168273ffffffffffffffffffffffffffffffffffffffff161415611051576040517f08c379a000000000000000000000000000000000000000000000000000000000815260040161104890613fb9565b60405180910390fd5b806005600061105e611ece565b73ffffffffffffffffffffffffffffffffffffffff1673ffffffffffffffffffffffffffffffffffffffff16815260200190815260200160002060008473ffffffffffffffffffffffffffffffffffffffff1673ffffffffffffffffffffffffffffffffffffffff16815260200190815260200160002060006101000a81548160ff0219169083151502179055508173ffffffffffffffffffffffffffffffffffffffff1661110b611ece565b73ffffffffffffffffffffffffffffffffffffffff167f17307eab39ab6107e8899845ad3d59bd9653f200f220920489ca2b5937696c31836040516111509190613da0565b60405180910390a35050565b61116d611167611ece565b83611f8f565b6111ac576040517f08c379a00000000000000000000000000000000000000000000000000000000081526004016111a390614119565b60405180910390fd5b6111b884848484612407565b50505050565b60606007805480602002602001604051908101604052809291908181526020016000905b8282101561136057838290600052602060002090600602016040518060c00160405290816000820154815260200160018201805461121f906144e9565b80601f016020809104026020016040519081016040528092919081815260200182805461124b906144e9565b80156112985780601f1061126d57610100808354040283529160200191611298565b820191906000526020600020905b81548152906001019060200180831161127b57829003601f168201915b505050505081526020016002820180546112b1906144e9565b80601f01602080910402602001604051908101604052809291908181526020018280546112dd906144e9565b801561132a5780601f106112ff5761010080835404028352916020019161132a565b820191906000526020600020905b81548152906001019060200180831161130d57829003601f168201915b505050505081526020016003820154815260200160048201548152602001600582015481525050815260200190600101906111e2565b50505050905090565b60606000600860008481526020019081526020016000206040518060c0016040529081600082015481526020016001820180546113a5906144e9565b80601f01602080910402602001604051908101604052809291908181526020018280546113d1906144e9565b801561141e5780601f106113f35761010080835404028352916020019161141e565b820191906000526020600020905b81548152906001019060200180831161140157829003601f168201915b50505050508152602001600282018054611437906144e9565b80601f0160208091040260200160405190810160405280929190818152602001828054611463906144e9565b80156114b05780601f10611485576101008083540402835291602001916114b0565b820191906000526020600020905b81548152906001019060200180831161149357829003601f168201915b505050505081526020016003820154815260200160048201548152602001600582015481525050905060006114e88260600151612463565b905060006114f98360800151612463565b9050600061150a8460a00151612463565b90506000611550856020015161151f89612463565b876040015187878760405160200161153c96959493929190613c19565b604051602081830303815290604052612610565b90506000816040516020016115659190613cbe565b6040516020818303038152906040529050809650505050505050919050565b61158c612c9a565b6000600e60003373ffffffffffffffffffffffffffffffffffffffff1673ffffffffffffffffffffffffffffffffffffffff168152602001908152602001600020549050600081111561174b57600860008281526020019081526020016000206040518060c001604052908160008201548152602001600182018054611611906144e9565b80601f016020809104026020016040519081016040528092919081815260200182805461163d906144e9565b801561168a5780601f1061165f5761010080835404028352916020019161168a565b820191906000526020600020905b81548152906001019060200180831161166d57829003601f168201915b505050505081526020016002820180546116a3906144e9565b80601f01602080910402602001604051908101604052809291908181526020018280546116cf906144e9565b801561171c5780601f106116f15761010080835404028352916020019161171c565b820191906000526020600020905b8154815290600101906020018083116116ff57829003601f168201915b505050505081526020016003820154815260200160048201548152602001600582015481525050915050611759565b611753612c9a565b80925050505b90565b611764612cd0565b60096040518060a0016040529081600082018054611781906144e9565b80601f01602080910402602001604051908101604052809291908181526020018280546117ad906144e9565b80156117fa5780601f106117cf576101008083540402835291602001916117fa565b820191906000526020600020905b8154815290600101906020018083116117dd57829003601f168201915b50505050508152602001600182018054611813906144e9565b80601f016020809104026020016040519081016040528092919081815260200182805461183f906144e9565b801561188c5780601f106118615761010080835404028352916020019161188c565b820191906000526020600020905b81548152906001019060200180831161186f57829003601f168201915b505050505081526020016002820154815260200160038201548152602001600482015481525050905090565b6000600560008473ffffffffffffffffffffffffffffffffffffffff1673ffffffffffffffffffffffffffffffffffffffff16815260200190815260200160002060008373ffffffffffffffffffffffffffffffffffffffff1673ffffffffffffffffffffffffffffffffffffffff16815260200190815260200160002060009054906101000a900460ff16905092915050565b600061195860066127ce565b905061196433826127dc565b6040518060c00160405280838152602001600784815481106119af577f4e487b7100000000000000000000000000000000000000000000000000000000600052603260045260246000fd5b906000526020600020906006020160010180546119cb906144e9565b80601f01602080910402602001604051908101604052809291908181526020018280546119f7906144e9565b8015611a445780601f10611a1957610100808354040283529160200191611a44565b820191906000526020600020905b815481529060010190602001808311611a2757829003601f168201915b5050505050815260200160078481548110611a88577f4e487b7100000000000000000000000000000000000000000000000000000000600052603260045260246000fd5b90600052602060002090600602016002018054611aa4906144e9565b80601f0160208091040260200160405190810160405280929190818152602001828054611ad0906144e9565b8015611b1d5780601f10611af257610100808354040283529160200191611b1d565b820191906000526020600020905b815481529060010190602001808311611b0057829003601f168201915b5050505050815260200160078481548110611b61577f4e487b7100000000000000000000000000000000000000000000000000000000600052603260045260246000fd5b906000526020600020906006020160030154815260200160078481548110611bb2577f4e487b7100000000000000000000000000000000000000000000000000000000600052603260045260246000fd5b906000526020600020906006020160040154815260200160078481548110611c03577f4e487b7100000000000000000000000000000000000000000000000000000000600052603260045260246000fd5b90600052602060002090600602016005015481525060086000838152602001908152602001600020600082015181600001556020820151816001019080519060200190611c51929190612cff565b506040820151816002019080519060200190611c6e929190612cff565b50606082015181600301556080820151816004015560a08201518160050155905050611cb36040518060600160405280602e815260200161474f602e913982846127fa565b80600e60003373ffffffffffffffffffffffffffffffffffffffff1673ffffffffffffffffffffffffffffffffffffffff16815260200190815260200160002081905550611d016006611de2565b7f4bc303fd457a97b4691b9af582ce71868a3d258638c8d4f8c60988a0f0bfb8cd338284604051611d3493929190613d47565b60405180910390a15050565b611ddc84848484604051602401611d5a9493929190613ddd565b6040516020818303038152906040527f8d142cdd000000000000000000000000000000000000000000000000000000007bffffffffffffffffffffffffffffffffffffffffffffffffffffffff19166020820180517bffffffffffffffffffffffffffffffffffffffffffffffffffffffff8381831617835250505050612899565b50505050565b6001816000016000828254019250508190555050565b60007f01ffc9a7000000000000000000000000000000000000000000000000000000007bffffffffffffffffffffffffffffffffffffffffffffffffffffffff1916827bffffffffffffffffffffffffffffffffffffffffffffffffffffffff1916149050919050565b60008073ffffffffffffffffffffffffffffffffffffffff166002600084815260200190815260200160002060009054906101000a900473ffffffffffffffffffffffffffffffffffffffff1673ffffffffffffffffffffffffffffffffffffffff1614159050919050565b600033905090565b816004600083815260200190815260200160002060006101000a81548173ffffffffffffffffffffffffffffffffffffffff021916908373ffffffffffffffffffffffffffffffffffffffff160217905550808273ffffffffffffffffffffffffffffffffffffffff16611f49836108f0565b73ffffffffffffffffffffffffffffffffffffffff167f8c5be1e5ebec7d5bd14f71427d1e84f3dd0314c0f7b2291e5b200ac8c7c3b92560405160405180910390a45050565b6000611f9a82611e62565b611fd9576040517f08c379a0000000000000000000000000000000000000000000000000000000008152600401611fd090613ff9565b60405180910390fd5b6000611fe4836108f0565b90508073ffffffffffffffffffffffffffffffffffffffff168473ffffffffffffffffffffffffffffffffffffffff16148061205357508373ffffffffffffffffffffffffffffffffffffffff1661203b8461059f565b73ffffffffffffffffffffffffffffffffffffffff16145b80612064575061206381856118b8565b5b91505092915050565b8273ffffffffffffffffffffffffffffffffffffffff1661208d826108f0565b73ffffffffffffffffffffffffffffffffffffffff16146120e3576040517f08c379a00000000000000000000000000000000000000000000000000000000081526004016120da906140d9565b60405180910390fd5b600073ffffffffffffffffffffffffffffffffffffffff168273ffffffffffffffffffffffffffffffffffffffff161415612153576040517f08c379a000000000000000000000000000000000000000000000000000000000815260040161214a90613f99565b60405180910390fd5b61215e8383836128c2565b612169600082611ed6565b6001600360008573ffffffffffffffffffffffffffffffffffffffff1673ffffffffffffffffffffffffffffffffffffffff16815260200190815260200160002060008282546121b991906143ff565b925050819055506001600360008473ffffffffffffffffffffffffffffffffffffffff1673ffffffffffffffffffffffffffffffffffffffff1681526020019081526020016000206000828254612210919061431e565b92505081905550816002600083815260200190815260200160002060006101000a81548173ffffffffffffffffffffffffffffffffffffffff021916908373ffffffffffffffffffffffffffffffffffffffff160217905550808273ffffffffffffffffffffffffffffffffffffffff168473ffffffffffffffffffffffffffffffffffffffff167fddf252ad1be2c89b69c2b068fc378daa952ba7f163c4a11628f55a4df523b3ef60405160405180910390a4505050565b612365848484846040516024016122e39493929190613e37565b6040516020818303038152906040527fd5cf17d0000000000000000000000000000000000000000000000000000000007bffffffffffffffffffffffffffffffffffffffffffffffffffffffff19166020820180517bffffffffffffffffffffffffffffffffffffffffffffffffffffffff8381831617835250505050612899565b50505050565b6124038282604051602401612381929190613eeb565b6040516020818303038152906040527f9710a9d0000000000000000000000000000000000000000000000000000000007bffffffffffffffffffffffffffffffffffffffffffffffffffffffff19166020820180517bffffffffffffffffffffffffffffffffffffffffffffffffffffffff8381831617835250505050612899565b5050565b61241284848461206d565b61241e848484846128c7565b61245d576040517f08c379a000000000000000000000000000000000000000000000000000000000815260040161245490613f59565b60405180910390fd5b50505050565b606060008214156124ab576040518060400160405280600181526020017f3000000000000000000000000000000000000000000000000000000000000000815250905061260b565b600082905060005b600082146124dd5780806124c69061451b565b915050600a826124d69190614374565b91506124b3565b60008167ffffffffffffffff81111561251f577f4e487b7100000000000000000000000000000000000000000000000000000000600052604160045260246000fd5b6040519080825280601f01601f1916602001820160405280156125515781602001600182028036833780820191505090505b5090505b600085146126045760018261256a91906143ff565b9150600a856125799190614564565b6030612585919061431e565b60f81b8183815181106125c1577f4e487b7100000000000000000000000000000000000000000000000000000000600052603260045260246000fd5b60200101907effffffffffffffffffffffffffffffffffffffffffffffffffffffffffffff1916908160001a905350600a856125fd9190614374565b9450612555565b8093505050505b919050565b6060600082519050600081141561263957604051806020016040528060008152509150506127c9565b6000600360028361264a919061431e565b6126549190614374565b600461266091906143a5565b90506000602082612671919061431e565b67ffffffffffffffff8111156126b0577f4e487b7100000000000000000000000000000000000000000000000000000000600052604160045260246000fd5b6040519080825280601f01601f1916602001820160405280156126e25781602001600182028036833780820191505090505b509050600060405180606001604052806040815260200161470f604091399050600181016020830160005b868110156127865760038101905062ffffff818a015116603f8160121c168401518060081b905060ff603f83600c1c1686015116810190508060081b905060ff603f8360061c1686015116810190508060081b905060ff603f831686015116810190508060e01b9050808452600484019350505061270d565b5060038606600181146127a057600281146127b0576127bb565b613d3d60f01b60028303526127bb565b603d60f81b60018303525b508484525050819450505050505b919050565b600081600001549050919050565b6127f6828260405180602001604052806000815250612a5e565b5050565b61289483838360405160240161281293929190613f1b565b6040516020818303038152906040527f969cdd03000000000000000000000000000000000000000000000000000000007bffffffffffffffffffffffffffffffffffffffffffffffffffffffff19166020820180517bffffffffffffffffffffffffffffffffffffffffffffffffffffffff8381831617835250505050612899565b505050565b60008151905060006a636f6e736f6c652e6c6f679050602083016000808483855afa5050505050565b505050565b60006128e88473ffffffffffffffffffffffffffffffffffffffff16612ab9565b15612a51578373ffffffffffffffffffffffffffffffffffffffff1663150b7a02612911611ece565b8786866040518563ffffffff1660e01b81526004016129339493929190613cfb565b602060405180830381600087803b15801561294d57600080fd5b505af192505050801561297e57506040513d601f19601f8201168201806040525081019061297b9190613043565b60015b612a01573d80600081146129ae576040519150601f19603f3d011682016040523d82523d6000602084013e6129b3565b606091505b506000815114156129f9576040517f08c379a00000000000000000000000000000000000000000000000000000000081526004016129f090613f59565b60405180910390fd5b805181602001fd5b63150b7a0260e01b7bffffffffffffffffffffffffffffffffffffffffffffffffffffffff1916817bffffffffffffffffffffffffffffffffffffffffffffffffffffffff191614915050612a56565b600190505b949350505050565b612a688383612acc565b612a7560008484846128c7565b612ab4576040517f08c379a0000000000000000000000000000000000000000000000000000000008152600401612aab90613f59565b60405180910390fd5b505050565b600080823b905060008111915050919050565b600073ffffffffffffffffffffffffffffffffffffffff168273ffffffffffffffffffffffffffffffffffffffff161415612b3c576040517f08c379a0000000000000000000000000000000000000000000000000000000008152600401612b3390614099565b60405180910390fd5b612b4581611e62565b15612b85576040517f08c379a0000000000000000000000000000000000000000000000000000000008152600401612b7c90613f79565b60405180910390fd5b612b91600083836128c2565b6001600360008473ffffffffffffffffffffffffffffffffffffffff1673ffffffffffffffffffffffffffffffffffffffff1681526020019081526020016000206000828254612be1919061431e565b92505081905550816002600083815260200190815260200160002060006101000a81548173ffffffffffffffffffffffffffffffffffffffff021916908373ffffffffffffffffffffffffffffffffffffffff160217905550808273ffffffffffffffffffffffffffffffffffffffff16600073ffffffffffffffffffffffffffffffffffffffff167fddf252ad1be2c89b69c2b068fc378daa952ba7f163c4a11628f55a4df523b3ef60405160405180910390a45050565b6040518060c001604052806000815260200160608152602001606081526020016000815260200160008152602001600081525090565b6040518060a0016040528060608152602001606081526020016000815260200160008152602001600081525090565b828054612d0b906144e9565b90600052602060002090601f016020900481019282612d2d5760008555612d74565b82601f10612d4657805160ff1916838001178555612d74565b82800160010185558215612d74579182015b82811115612d73578251825591602001919060010190612d58565b5b509050612d819190612d85565b5090565b5b80821115612d9e576000816000905550600101612d86565b5090565b6000612db5612db084614261565b614230565b905082815260208101848484011115612dcd57600080fd5b612dd88482856144a7565b509392505050565b600081359050612def81614662565b92915050565b600081359050612e0481614679565b92915050565b600081359050612e1981614690565b92915050565b600081519050612e2e81614690565b92915050565b600082601f830112612e4557600080fd5b8135612e55848260208601612da2565b91505092915050565b600081359050612e6d816146a7565b92915050565b600060208284031215612e8557600080fd5b6000612e9384828501612de0565b91505092915050565b60008060408385031215612eaf57600080fd5b6000612ebd85828601612de0565b9250506020612ece85828601612de0565b9150509250929050565b600080600060608486031215612eed57600080fd5b6000612efb86828701612de0565b9350506020612f0c86828701612de0565b9250506040612f1d86828701612e5e565b9150509250925092565b60008060008060808587031215612f3d57600080fd5b6000612f4b87828801612de0565b9450506020612f5c87828801612de0565b9350506040612f6d87828801612e5e565b925050606085013567ffffffffffffffff811115612f8a57600080fd5b612f9687828801612e34565b91505092959194509250565b60008060408385031215612fb557600080fd5b6000612fc385828601612de0565b9250506020612fd485828601612df5565b9150509250929050565b60008060408385031215612ff157600080fd5b6000612fff85828601612de0565b925050602061301085828601612e5e565b9150509250929050565b60006020828403121561302c57600080fd5b600061303a84828501612e0a565b91505092915050565b60006020828403121561305557600080fd5b600061306384828501612e1f565b91505092915050565b60006020828403121561307e57600080fd5b600061308c84828501612e5e565b91505092915050565b60006130a18383613a5e565b905092915050565b6130b281614433565b82525050565b60006130c3826142a1565b6130cd81856142cf565b9350836020820285016130df85614291565b8060005b8581101561311b57848403895281516130fc8582613095565b9450613107836142c2565b925060208a019950506001810190506130e3565b50829750879550505050505092915050565b61313681614445565b82525050565b6000613147826142ac565b61315181856142e0565b93506131618185602086016144b6565b61316a81614651565b840191505092915050565b6000613180826142b7565b61318a81856142f1565b935061319a8185602086016144b6565b6131a381614651565b840191505092915050565b60006131b9826142b7565b6131c38185614302565b93506131d38185602086016144b6565b6131dc81614651565b840191505092915050565b60006131f2826142b7565b6131fc8185614313565b935061320c8185602086016144b6565b80840191505092915050565b6000613225600b83614313565b91507f202d2d204e465420233a200000000000000000000000000000000000000000006000830152600b82019050919050565b6000613265603283614302565b91507f4552433732313a207472616e7366657220746f206e6f6e20455243373231526560008301527f63656976657220696d706c656d656e74657200000000000000000000000000006020830152604082019050919050565b60006132cb601c83614302565b91507f4552433732313a20746f6b656e20616c7265616479206d696e746564000000006000830152602082019050919050565b600061330b600e83614313565b91507f2c20226d61785f76616c7565223a0000000000000000000000000000000000006000830152600e82019050919050565b600061334b602483614302565b91507f4552433732313a207472616e7366657220746f20746865207a65726f2061646460008301527f72657373000000000000000000000000000000000000000000000000000000006020830152604082019050919050565b60006133b1601983614302565b91507f4552433732313a20617070726f766520746f2063616c6c6572000000000000006000830152602082019050919050565b60006133f1602b83614302565b91507f4572726f723a2044656d6f6e206d757374206861766520485020746f2061747460008301527f61636b206f74686572732e0000000000000000000000000000000000000000006020830152604082019050919050565b6000613457602c83614302565b91507f4552433732313a206f70657261746f7220717565727920666f72206e6f6e657860008301527f697374656e7420746f6b656e00000000000000000000000000000000000000006020830152604082019050919050565b60006134bd603883614302565b91507f4552433732313a20617070726f76652063616c6c6572206973206e6f74206f7760008301527f6e6572206e6f7220617070726f76656420666f7220616c6c00000000000000006020830152604082019050919050565b6000613523602a83614302565b91507f4552433732313a2062616c616e636520717565727920666f7220746865207a6560008301527f726f2061646472657373000000000000000000000000000000000000000000006020830152604082019050919050565b6000613589602983614302565b91507f4552433732313a206f776e657220717565727920666f72206e6f6e657869737460008301527f656e7420746f6b656e00000000000000000000000000000000000000000000006020830152604082019050919050565b60006135ef602d83614302565b91507f4572726f723a20636861726163746572206d757374206861766520485020746f60008301527f2061747461636b20626f73732e000000000000000000000000000000000000006020830152604082019050919050565b6000613655600483614313565b91507f7d205d7d000000000000000000000000000000000000000000000000000000006000830152600482019050919050565b6000613695602083614302565b91507f4552433732313a206d696e7420746f20746865207a65726f20616464726573736000830152602082019050919050565b60006136d5602c83614302565b91507f4552433732313a20617070726f76656420717565727920666f72206e6f6e657860008301527f697374656e7420746f6b656e00000000000000000000000000000000000000006020830152604082019050919050565b600061373b602983614302565b91507f4552433732313a207472616e73666572206f6620746f6b656e2074686174206960008301527f73206e6f74206f776e00000000000000000000000000000000000000000000006020830152604082019050919050565b60006137a1600a83614313565b91507f7b226e616d65223a2022000000000000000000000000000000000000000000006000830152600a82019050919050565b60006137e1602183614302565b91507f4552433732313a20617070726f76616c20746f2063757272656e74206f776e6560008301527f72000000000000000000000000000000000000000000000000000000000000006020830152604082019050919050565b6000613847601d83614313565b91507f646174613a6170706c69636174696f6e2f6a736f6e3b6261736536342c0000006000830152601d82019050919050565b6000613887603183614302565b91507f4552433732313a207472616e736665722063616c6c6572206973206e6f74206f60008301527f776e6572206e6f7220617070726f7665640000000000000000000000000000006020830152604082019050919050565b60006138ed603d83614313565b91507f222c202261747472696275746573223a205b207b202274726169745f7479706560008301527f223a20224865616c746820506f696e7473222c202276616c7565223a200000006020830152603d82019050919050565b6000613953602d83614313565b91507f7d2c207b202274726169745f74797065223a202241747461636b2044616d616760008301527f65222c202276616c7565223a20000000000000000000000000000000000000006020830152602d82019050919050565b60006139b9606883614313565b91507f222c20226465736372697074696f6e223a20225468697320697320616e204e4660008301527f542074686174206c6574732070656f706c6520706c617920696e20746865206760208301527f616d653a20224a6f75726e657920746f2074686520576573742122222c20226960408301527f6d616765223a20220000000000000000000000000000000000000000000000006060830152606882019050919050565b600060c083016000830151613a766000860182613bfb565b5060208301518482036020860152613a8e8282613175565b91505060408301518482036040860152613aa88282613175565b9150506060830151613abd6060860182613bfb565b506080830151613ad06080860182613bfb565b5060a0830151613ae360a0860182613bfb565b508091505092915050565b600060c083016000830151613b066000860182613bfb565b5060208301518482036020860152613b1e8282613175565b91505060408301518482036040860152613b388282613175565b9150506060830151613b4d6060860182613bfb565b506080830151613b606080860182613bfb565b5060a0830151613b7360a0860182613bfb565b508091505092915050565b600060a0830160008301518482036000860152613b9b8282613175565b91505060208301518482036020860152613bb58282613175565b9150506040830151613bca6040860182613bfb565b506060830151613bdd6060860182613bfb565b506080830151613bf06080860182613bfb565b508091505092915050565b613c048161449d565b82525050565b613c138161449d565b82525050565b6000613c2482613794565b9150613c3082896131e7565b9150613c3b82613218565b9150613c4782886131e7565b9150613c52826139ac565b9150613c5e82876131e7565b9150613c69826138e0565b9150613c7582866131e7565b9150613c80826132fe565b9150613c8c82856131e7565b9150613c9782613946565b9150613ca382846131e7565b9150613cae82613648565b9150819050979650505050505050565b6000613cc98261383a565b9150613cd582846131e7565b915081905092915050565b6000602082019050613cf560008301846130a9565b92915050565b6000608082019050613d1060008301876130a9565b613d1d60208301866130a9565b613d2a6040830185613c0a565b8181036060830152613d3c818461313c565b905095945050505050565b6000606082019050613d5c60008301866130a9565b613d696020830185613c0a565b613d766040830184613c0a565b949350505050565b60006020820190508181036000830152613d9881846130b8565b905092915050565b6000602082019050613db5600083018461312d565b92915050565b60006020820190508181036000830152613dd581846131ae565b905092915050565b60006080820190508181036000830152613df781876131ae565b90508181036020830152613e0b81866131ae565b9050613e1a6040830185613c0a565b8181036060830152613e2c81846131ae565b905095945050505050565b60006080820190508181036000830152613e5181876131ae565b90508181036020830152613e6581866131ae565b9050613e746040830185613c0a565b613e816060830184613c0a565b95945050505050565b600060a0820190508181036000830152613ea481886131ae565b90508181036020830152613eb881876131ae565b9050613ec76040830186613c0a565b613ed46060830185613c0a565b613ee16080830184613c0a565b9695505050505050565b60006040820190508181036000830152613f0581856131ae565b9050613f146020830184613c0a565b9392505050565b60006060820190508181036000830152613f3581866131ae565b9050613f446020830185613c0a565b613f516040830184613c0a565b949350505050565b60006020820190508181036000830152613f7281613258565b9050919050565b60006020820190508181036000830152613f92816132be565b9050919050565b60006020820190508181036000830152613fb28161333e565b9050919050565b60006020820190508181036000830152613fd2816133a4565b9050919050565b60006020820190508181036000830152613ff2816133e4565b9050919050565b600060208201905081810360008301526140128161344a565b9050919050565b60006020820190508181036000830152614032816134b0565b9050919050565b6000602082019050818103600083015261405281613516565b9050919050565b600060208201905081810360008301526140728161357c565b9050919050565b60006020820190508181036000830152614092816135e2565b9050919050565b600060208201905081810360008301526140b281613688565b9050919050565b600060208201905081810360008301526140d2816136c8565b9050919050565b600060208201905081810360008301526140f28161372e565b9050919050565b60006020820190508181036000830152614112816137d4565b9050919050565b600060208201905081810360008301526141328161387a565b9050919050565b600060208201905081810360008301526141538184613aee565b905092915050565b600060208201905081810360008301526141758184613b7e565b905092915050565b60006020820190506141926000830184613c0a565b92915050565b600060c0820190506141ad6000830189613c0a565b81810360208301526141bf81886131ae565b905081810360408301526141d381876131ae565b90506141e26060830186613c0a565b6141ef6080830185613c0a565b6141fc60a0830184613c0a565b979650505050505050565b600060408201905061421c6000830185613c0a565b6142296020830184613c0a565b9392505050565b6000604051905081810181811067ffffffffffffffff8211171561425757614256614622565b5b8060405250919050565b600067ffffffffffffffff82111561427c5761427b614622565b5b601f19601f8301169050602081019050919050565b6000819050602082019050919050565b600081519050919050565b600081519050919050565b600081519050919050565b6000602082019050919050565b600082825260208201905092915050565b600082825260208201905092915050565b600082825260208201905092915050565b600082825260208201905092915050565b600081905092915050565b60006143298261449d565b91506143348361449d565b9250827fffffffffffffffffffffffffffffffffffffffffffffffffffffffffffffffff0382111561436957614368614595565b5b828201905092915050565b600061437f8261449d565b915061438a8361449d565b92508261439a576143996145c4565b5b828204905092915050565b60006143b08261449d565b91506143bb8361449d565b9250817fffffffffffffffffffffffffffffffffffffffffffffffffffffffffffffffff04831182151516156143f4576143f3614595565b5b828202905092915050565b600061440a8261449d565b91506144158361449d565b92508282101561442857614427614595565b5b828203905092915050565b600061443e8261447d565b9050919050565b60008115159050919050565b60007fffffffff0000000000000000000000000000000000000000000000000000000082169050919050565b600073ffffffffffffffffffffffffffffffffffffffff82169050919050565b6000819050919050565b82818337600083830152505050565b60005b838110156144d45780820151818401526020810190506144b9565b838111156144e3576000848401525b50505050565b6000600282049050600182168061450157607f821691505b60208210811415614515576145146145f3565b5b50919050565b60006145268261449d565b91507fffffffffffffffffffffffffffffffffffffffffffffffffffffffffffffffff82141561455957614558614595565b5b600182019050919050565b600061456f8261449d565b915061457a8361449d565b92508261458a576145896145c4565b5b828206905092915050565b7f4e487b7100000000000000000000000000000000000000000000000000000000600052601160045260246000fd5b7f4e487b7100000000000000000000000000000000000000000000000000000000600052601260045260246000fd5b7f4e487b7100000000000000000000000000000000000000000000000000000000600052602260045260246000fd5b7f4e487b7100000000000000000000000000000000000000000000000000000000600052604160045260246000fd5b6000601f19601f8301169050919050565b61466b81614433565b811461467657600080fd5b50565b61468281614445565b811461468d57600080fd5b50565b61469981614451565b81146146a457600080fd5b50565b6146b08161449d565b81146146bb57600080fd5b5056fe44656d6f6e2061747461636b656420706c617965722e204e657720706c617965722068703a2025730a506c617965722061747461636b65642044656d6f6e2e204e65772064656d6f6e2068703a2025734142434445464748494a4b4c4d4e4f505152535455565758595a6162636465666768696a6b6c6d6e6f707172737475767778797a303132333435363738392b2f4d696e746564204e465420772f20746f6b656e496420257320616e6420636861726163746572496e6465782025730a506c6179657220772f206368617261637465722025732061626f757420746f2061747461636b2e2048617320257320485020616e64202573204144a2646970667358221220d2158e2e7144251996cb165b10c10ae956285cd1fbb23bb38709bda355888ee764736f6c63430008000033446f6e6520696e697469616c697a696e6720257320772f2048502025732c20696d67202573446f6e6520696e697469616c697a696e6720626f737320257320772f2048502025732c20696d67202573",
  "linkReferences": {},
  "deployedLinkReferences": {}
}